{
  "address": "0xd4EC4DBA4e980D9DbF8cCe4D0e7698ffB35025bF",
  "abi": [
    {
      "inputs": [
        {
          "internalType": "address",
          "name": "_beatCoinContract",
          "type": "address"
        }
      ],
      "stateMutability": "nonpayable",
      "type": "constructor"
    },
    {
      "inputs": [],
      "name": "ERC721EnumerableForbiddenBatchMint",
      "type": "error"
    },
    {
      "inputs": [
        {
          "internalType": "address",
          "name": "sender",
          "type": "address"
        },
        {
          "internalType": "uint256",
          "name": "tokenId",
          "type": "uint256"
        },
        {
          "internalType": "address",
          "name": "owner",
          "type": "address"
        }
      ],
      "name": "ERC721IncorrectOwner",
      "type": "error"
    },
    {
      "inputs": [
        {
          "internalType": "address",
          "name": "operator",
          "type": "address"
        },
        {
          "internalType": "uint256",
          "name": "tokenId",
          "type": "uint256"
        }
      ],
      "name": "ERC721InsufficientApproval",
      "type": "error"
    },
    {
      "inputs": [
        {
          "internalType": "address",
          "name": "approver",
          "type": "address"
        }
      ],
      "name": "ERC721InvalidApprover",
      "type": "error"
    },
    {
      "inputs": [
        {
          "internalType": "address",
          "name": "operator",
          "type": "address"
        }
      ],
      "name": "ERC721InvalidOperator",
      "type": "error"
    },
    {
      "inputs": [
        {
          "internalType": "address",
          "name": "owner",
          "type": "address"
        }
      ],
      "name": "ERC721InvalidOwner",
      "type": "error"
    },
    {
      "inputs": [
        {
          "internalType": "address",
          "name": "receiver",
          "type": "address"
        }
      ],
      "name": "ERC721InvalidReceiver",
      "type": "error"
    },
    {
      "inputs": [
        {
          "internalType": "address",
          "name": "sender",
          "type": "address"
        }
      ],
      "name": "ERC721InvalidSender",
      "type": "error"
    },
    {
      "inputs": [
        {
          "internalType": "uint256",
          "name": "tokenId",
          "type": "uint256"
        }
      ],
      "name": "ERC721NonexistentToken",
      "type": "error"
    },
    {
      "inputs": [
        {
          "internalType": "address",
          "name": "owner",
          "type": "address"
        },
        {
          "internalType": "uint256",
          "name": "index",
          "type": "uint256"
        }
      ],
      "name": "ERC721OutOfBoundsIndex",
      "type": "error"
    },
    {
      "inputs": [
        {
          "internalType": "address",
          "name": "owner",
          "type": "address"
        }
      ],
      "name": "OwnableInvalidOwner",
      "type": "error"
    },
    {
      "inputs": [
        {
          "internalType": "address",
          "name": "account",
          "type": "address"
        }
      ],
      "name": "OwnableUnauthorizedAccount",
      "type": "error"
    },
    {
      "anonymous": false,
      "inputs": [
        {
          "indexed": true,
          "internalType": "address",
          "name": "owner",
          "type": "address"
        },
        {
          "indexed": true,
          "internalType": "address",
          "name": "approved",
          "type": "address"
        },
        {
          "indexed": true,
          "internalType": "uint256",
          "name": "tokenId",
          "type": "uint256"
        }
      ],
      "name": "Approval",
      "type": "event"
    },
    {
      "anonymous": false,
      "inputs": [
        {
          "indexed": true,
          "internalType": "address",
          "name": "owner",
          "type": "address"
        },
        {
          "indexed": true,
          "internalType": "address",
          "name": "operator",
          "type": "address"
        },
        {
          "indexed": false,
          "internalType": "bool",
          "name": "approved",
          "type": "bool"
        }
      ],
      "name": "ApprovalForAll",
      "type": "event"
    },
    {
      "anonymous": false,
      "inputs": [
        {
          "indexed": false,
          "internalType": "uint256",
          "name": "_fromTokenId",
          "type": "uint256"
        },
        {
          "indexed": false,
          "internalType": "uint256",
          "name": "_toTokenId",
          "type": "uint256"
        }
      ],
      "name": "BatchMetadataUpdate",
      "type": "event"
    },
    {
      "anonymous": false,
      "inputs": [
        {
          "indexed": false,
          "internalType": "uint256",
          "name": "_tokenId",
          "type": "uint256"
        }
      ],
      "name": "MetadataUpdate",
      "type": "event"
    },
    {
      "anonymous": false,
      "inputs": [
        {
          "indexed": true,
          "internalType": "address",
          "name": "creator",
          "type": "address"
        },
        {
          "indexed": true,
          "internalType": "uint256",
          "name": "tokenId",
          "type": "uint256"
        }
      ],
      "name": "NFTuneCreated",
      "type": "event"
    },
    {
      "anonymous": false,
      "inputs": [
        {
          "indexed": true,
          "internalType": "address",
          "name": "previousOwner",
          "type": "address"
        },
        {
          "indexed": true,
          "internalType": "address",
          "name": "newOwner",
          "type": "address"
        }
      ],
      "name": "OwnershipTransferred",
      "type": "event"
    },
    {
      "anonymous": false,
      "inputs": [
        {
          "indexed": true,
          "internalType": "address",
          "name": "user",
          "type": "address"
        },
        {
          "indexed": true,
          "internalType": "uint256",
          "name": "newId",
          "type": "uint256"
        },
        {
          "indexed": true,
          "internalType": "uint256",
          "name": "originalId",
          "type": "uint256"
        }
      ],
      "name": "RemixCreated",
      "type": "event"
    },
    {
      "anonymous": false,
      "inputs": [
        {
          "indexed": true,
          "internalType": "uint256",
          "name": "nftId",
          "type": "uint256"
        },
        {
          "indexed": false,
          "internalType": "uint256",
          "name": "totalReward",
          "type": "uint256"
        }
      ],
      "name": "RewardDistributed",
      "type": "event"
    },
    {
      "anonymous": false,
      "inputs": [
        {
          "indexed": true,
          "internalType": "address",
          "name": "user",
          "type": "address"
        },
        {
          "indexed": true,
          "internalType": "uint256",
          "name": "nftId",
          "type": "uint256"
        },
        {
          "indexed": false,
          "internalType": "uint256",
          "name": "amount",
          "type": "uint256"
        }
      ],
      "name": "Staked",
      "type": "event"
    },
    {
      "anonymous": false,
      "inputs": [
        {
          "indexed": true,
          "internalType": "address",
          "name": "from",
          "type": "address"
        },
        {
          "indexed": true,
          "internalType": "address",
          "name": "to",
          "type": "address"
        },
        {
          "indexed": true,
          "internalType": "uint256",
          "name": "tokenId",
          "type": "uint256"
        }
      ],
      "name": "Transfer",
      "type": "event"
    },
    {
      "anonymous": false,
      "inputs": [
        {
          "indexed": true,
          "internalType": "address",
          "name": "user",
          "type": "address"
        },
        {
          "indexed": true,
          "internalType": "uint256",
          "name": "nftId",
          "type": "uint256"
        },
        {
          "indexed": false,
          "internalType": "uint256",
          "name": "amount",
          "type": "uint256"
        }
      ],
      "name": "Unstaked",
      "type": "event"
    },
    {
      "inputs": [
        {
          "internalType": "string",
          "name": "code",
          "type": "string"
        }
      ],
      "name": "addInviteCode",
      "outputs": [],
      "stateMutability": "nonpayable",
      "type": "function"
    },
    {
      "inputs": [
        {
          "internalType": "uint256",
          "name": "",
          "type": "uint256"
        },
        {
          "internalType": "uint256",
          "name": "",
          "type": "uint256"
        }
      ],
      "name": "ancestors",
      "outputs": [
        {
          "internalType": "uint256",
          "name": "",
          "type": "uint256"
        }
      ],
      "stateMutability": "view",
      "type": "function"
    },
    {
      "inputs": [
        {
          "internalType": "address",
          "name": "to",
          "type": "address"
        },
        {
          "internalType": "uint256",
          "name": "tokenId",
          "type": "uint256"
        }
      ],
      "name": "approve",
      "outputs": [],
      "stateMutability": "nonpayable",
      "type": "function"
    },
    {
      "inputs": [
        {
          "internalType": "address",
          "name": "owner",
          "type": "address"
        }
      ],
      "name": "balanceOf",
      "outputs": [
        {
          "internalType": "uint256",
          "name": "",
          "type": "uint256"
        }
      ],
      "stateMutability": "view",
      "type": "function"
    },
    {
      "inputs": [],
      "name": "beatCoinContract",
      "outputs": [
        {
          "internalType": "address",
          "name": "",
          "type": "address"
        }
      ],
      "stateMutability": "view",
      "type": "function"
    },
    {
      "inputs": [
        {
          "internalType": "uint256",
          "name": "nftId",
          "type": "uint256"
        },
        {
          "internalType": "uint256",
          "name": "totalTransactionValue",
          "type": "uint256"
        }
      ],
      "name": "distributeRewards",
      "outputs": [],
      "stateMutability": "nonpayable",
      "type": "function"
    },
    {
      "inputs": [
        {
          "internalType": "uint256",
          "name": "tokenId",
          "type": "uint256"
        }
      ],
      "name": "getApproved",
      "outputs": [
        {
          "internalType": "address",
          "name": "",
          "type": "address"
        }
      ],
      "stateMutability": "view",
      "type": "function"
    },
    {
      "inputs": [
        {
          "internalType": "string",
          "name": "",
          "type": "string"
        }
      ],
      "name": "inviteCodes",
      "outputs": [
        {
          "internalType": "bool",
          "name": "",
          "type": "bool"
        }
      ],
      "stateMutability": "view",
      "type": "function"
    },
    {
      "inputs": [
        {
          "internalType": "address",
          "name": "owner",
          "type": "address"
        },
        {
          "internalType": "address",
          "name": "operator",
          "type": "address"
        }
      ],
      "name": "isApprovedForAll",
      "outputs": [
        {
          "internalType": "bool",
          "name": "",
          "type": "bool"
        }
      ],
      "stateMutability": "view",
      "type": "function"
    },
    {
      "inputs": [
        {
          "internalType": "uint256",
          "name": "tokenId",
          "type": "uint256"
        },
        {
          "internalType": "string",
          "name": "uri",
          "type": "string"
        },
        {
          "internalType": "string",
          "name": "code",
          "type": "string"
        }
      ],
      "name": "mintNFT",
      "outputs": [],
      "stateMutability": "nonpayable",
      "type": "function"
    },
    {
      "inputs": [
        {
          "internalType": "uint256",
          "name": "originalId",
          "type": "uint256"
        },
        {
          "internalType": "uint256",
          "name": "newId",
          "type": "uint256"
        },
        {
          "internalType": "string",
          "name": "uri",
          "type": "string"
        }
      ],
      "name": "mintRemix",
      "outputs": [],
      "stateMutability": "nonpayable",
      "type": "function"
    },
    {
      "inputs": [],
      "name": "name",
      "outputs": [
        {
          "internalType": "string",
          "name": "",
          "type": "string"
        }
      ],
      "stateMutability": "view",
      "type": "function"
    },
    {
      "inputs": [
        {
          "internalType": "uint256",
          "name": "",
          "type": "uint256"
        }
      ],
      "name": "nftRanking",
      "outputs": [
        {
          "internalType": "uint256",
          "name": "",
          "type": "uint256"
        }
      ],
      "stateMutability": "view",
      "type": "function"
    },
    {
      "inputs": [
        {
          "internalType": "address",
          "name": "",
          "type": "address"
        }
      ],
      "name": "operators",
      "outputs": [
        {
          "internalType": "bool",
          "name": "",
          "type": "bool"
        }
      ],
      "stateMutability": "view",
      "type": "function"
    },
    {
      "inputs": [],
      "name": "owner",
      "outputs": [
        {
          "internalType": "address",
          "name": "",
          "type": "address"
        }
      ],
      "stateMutability": "view",
      "type": "function"
    },
    {
      "inputs": [
        {
          "internalType": "uint256",
          "name": "tokenId",
          "type": "uint256"
        }
      ],
      "name": "ownerOf",
      "outputs": [
        {
          "internalType": "address",
          "name": "",
          "type": "address"
        }
      ],
      "stateMutability": "view",
      "type": "function"
    },
    {
      "inputs": [
        {
          "internalType": "uint256",
          "name": "",
          "type": "uint256"
        }
      ],
      "name": "remixOf",
      "outputs": [
        {
          "internalType": "uint256",
          "name": "",
          "type": "uint256"
        }
      ],
      "stateMutability": "view",
      "type": "function"
    },
    {
      "inputs": [],
      "name": "renounceOwnership",
      "outputs": [],
      "stateMutability": "nonpayable",
      "type": "function"
    },
    {
      "inputs": [
        {
          "internalType": "address",
          "name": "from",
          "type": "address"
        },
        {
          "internalType": "address",
          "name": "to",
          "type": "address"
        },
        {
          "internalType": "uint256",
          "name": "tokenId",
          "type": "uint256"
        }
      ],
      "name": "safeTransferFrom",
      "outputs": [],
      "stateMutability": "nonpayable",
      "type": "function"
    },
    {
      "inputs": [
        {
          "internalType": "address",
          "name": "from",
          "type": "address"
        },
        {
          "internalType": "address",
          "name": "to",
          "type": "address"
        },
        {
          "internalType": "uint256",
          "name": "tokenId",
          "type": "uint256"
        },
        {
          "internalType": "bytes",
          "name": "data",
          "type": "bytes"
        }
      ],
      "name": "safeTransferFrom",
      "outputs": [],
      "stateMutability": "nonpayable",
      "type": "function"
    },
    {
      "inputs": [
        {
          "internalType": "address",
          "name": "operator",
          "type": "address"
        },
        {
          "internalType": "bool",
          "name": "approved",
          "type": "bool"
        }
      ],
      "name": "setApprovalForAll",
      "outputs": [],
      "stateMutability": "nonpayable",
      "type": "function"
    },
    {
      "inputs": [
        {
          "internalType": "address",
          "name": "_operator",
          "type": "address"
        },
        {
          "internalType": "bool",
          "name": "_status",
          "type": "bool"
        }
      ],
      "name": "setOperator",
      "outputs": [],
      "stateMutability": "nonpayable",
      "type": "function"
    },
    {
      "inputs": [
        {
          "internalType": "uint256",
          "name": "nftId",
          "type": "uint256"
        },
        {
          "internalType": "uint256",
          "name": "amount",
          "type": "uint256"
        }
      ],
      "name": "stake",
      "outputs": [],
      "stateMutability": "nonpayable",
      "type": "function"
    },
    {
      "inputs": [
        {
          "internalType": "uint256",
          "name": "",
          "type": "uint256"
        },
        {
          "internalType": "address",
          "name": "",
          "type": "address"
        }
      ],
      "name": "stakes",
      "outputs": [
        {
          "internalType": "uint256",
          "name": "amount",
          "type": "uint256"
        },
        {
          "internalType": "uint256",
          "name": "timestamp",
          "type": "uint256"
        }
      ],
      "stateMutability": "view",
      "type": "function"
    },
    {
      "inputs": [
        {
          "internalType": "bytes4",
          "name": "interfaceId",
          "type": "bytes4"
        }
      ],
      "name": "supportsInterface",
      "outputs": [
        {
          "internalType": "bool",
          "name": "",
          "type": "bool"
        }
      ],
      "stateMutability": "view",
      "type": "function"
    },
    {
      "inputs": [],
      "name": "symbol",
      "outputs": [
        {
          "internalType": "string",
          "name": "",
          "type": "string"
        }
      ],
      "stateMutability": "view",
      "type": "function"
    },
    {
      "inputs": [
        {
          "internalType": "uint256",
          "name": "index",
          "type": "uint256"
        }
      ],
      "name": "tokenByIndex",
      "outputs": [
        {
          "internalType": "uint256",
          "name": "",
          "type": "uint256"
        }
      ],
      "stateMutability": "view",
      "type": "function"
    },
    {
      "inputs": [
        {
          "internalType": "address",
          "name": "owner",
          "type": "address"
        },
        {
          "internalType": "uint256",
          "name": "index",
          "type": "uint256"
        }
      ],
      "name": "tokenOfOwnerByIndex",
      "outputs": [
        {
          "internalType": "uint256",
          "name": "",
          "type": "uint256"
        }
      ],
      "stateMutability": "view",
      "type": "function"
    },
    {
      "inputs": [
        {
          "internalType": "uint256",
          "name": "tokenId",
          "type": "uint256"
        }
      ],
      "name": "tokenURI",
      "outputs": [
        {
          "internalType": "string",
          "name": "",
          "type": "string"
        }
      ],
      "stateMutability": "view",
      "type": "function"
    },
    {
      "inputs": [
        {
          "internalType": "uint256",
          "name": "",
          "type": "uint256"
        }
      ],
      "name": "totalStaked",
      "outputs": [
        {
          "internalType": "uint256",
          "name": "",
          "type": "uint256"
        }
      ],
      "stateMutability": "view",
      "type": "function"
    },
    {
      "inputs": [],
      "name": "totalSupply",
      "outputs": [
        {
          "internalType": "uint256",
          "name": "",
          "type": "uint256"
        }
      ],
      "stateMutability": "view",
      "type": "function"
    },
    {
      "inputs": [
        {
          "internalType": "address",
          "name": "from",
          "type": "address"
        },
        {
          "internalType": "address",
          "name": "to",
          "type": "address"
        },
        {
          "internalType": "uint256",
          "name": "tokenId",
          "type": "uint256"
        }
      ],
      "name": "transferFrom",
      "outputs": [],
      "stateMutability": "nonpayable",
      "type": "function"
    },
    {
      "inputs": [
        {
          "internalType": "address",
          "name": "newOwner",
          "type": "address"
        }
      ],
      "name": "transferOwnership",
      "outputs": [],
      "stateMutability": "nonpayable",
      "type": "function"
    },
    {
      "inputs": [
        {
          "internalType": "uint256",
          "name": "nftId",
          "type": "uint256"
        }
      ],
      "name": "unstake",
      "outputs": [],
      "stateMutability": "nonpayable",
      "type": "function"
    }
  ],
  "transactionHash": "0x094dc5866764da8f9c1c46640bdd3acdfc4d5ceff123365db54c55a7e73ffe68",
  "args": [
    "0x5ce57DD7608a489D46012EfcE07e0367990B47Fd"
  ],
  "numDeployments": 1,
  "solcInputHash": "231fe5f572db120eeae2226e678d93a1",
  "bytecode": "0x60806040523480156200001157600080fd5b5060405162002cee38038062002cee83398101604081905262000034916200014b565b33604051806040016040528060078152602001664e4654756e657360c81b815250604051806040016040528060078152602001664e4654554e455360c81b815250816000908162000086919062000222565b50600162000095828262000222565b5050506001600160a01b038116620000c757604051631e4fbdf760e01b81526000600482015260240160405180910390fd5b620000d281620000f9565b50600e80546001600160a01b0319166001600160a01b0392909216919091179055620002ee565b600b80546001600160a01b038381166001600160a01b0319831681179093556040519116919082907f8be0079c531659141344cd1fd0a4f28419497f9722a3daafe3b4186f6b6457e090600090a35050565b6000602082840312156200015e57600080fd5b81516001600160a01b03811681146200017657600080fd5b9392505050565b634e487b7160e01b600052604160045260246000fd5b600181811c90821680620001a857607f821691505b602082108103620001c957634e487b7160e01b600052602260045260246000fd5b50919050565b601f8211156200021d57600081815260208120601f850160051c81016020861015620001f85750805b601f850160051c820191505b81811015620002195782815560010162000204565b5050505b505050565b81516001600160401b038111156200023e576200023e6200017d565b62000256816200024f845462000193565b84620001cf565b602080601f8311600181146200028e5760008415620002755750858301515b600019600386901b1c1916600185901b17855562000219565b600085815260208120601f198616915b82811015620002bf578886015182559484019460019091019084016200029e565b5085821015620002de5787850151600019600388901b60f8161c191681555b5050505050600190811b01905550565b6129f080620002fe6000396000f3fe608060405234801561001057600080fd5b50600436106102065760003560e01c806370a082311161011a578063a9a3bba4116100ad578063df6c39fb1161007c578063df6c39fb146104b5578063e4956519146104c8578063e985e9c5146104f6578063f2fde38b14610509578063f35c28bf1461051c57600080fd5b8063a9a3bba414610435578063b88d4fde1461047c578063c87b56dd1461048f578063c8b86689146104a257600080fd5b806395d89b41116100e957806395d89b41146103f45780639a24c79a146103fc578063a22cb4651461040f578063a4d8b1011461042257600080fd5b806370a08231146103b5578063715018a6146103c85780637b0472f0146103d05780638da5cb5b146103e357600080fd5b806329a8438e1161019d57806342842e0e1161016c57806342842e0e146103495780634f6ccce71461035c578063558a72971461036f57806358ace2f4146103825780636352211e146103a257600080fd5b806329a8438e146102e35780632e17de78146103035780632f745c591461031657806341cb8c201461032957600080fd5b806311701159116101d9578063117011591461028857806313e7c9d81461029b57806318160ddd146102be57806323b872dd146102d057600080fd5b806301ffc9a71461020b57806306fdde0314610233578063081812fc14610248578063095ea7b314610273575b600080fd5b61021e6102193660046122f1565b61052f565b60405190151581526020015b60405180910390f35b61023b610540565b60405161022a919061235e565b61025b610256366004612371565b6105d2565b6040516001600160a01b03909116815260200161022a565b6102866102813660046123a6565b6105fb565b005b600e5461025b906001600160a01b031681565b61021e6102a93660046123d0565b60126020526000908152604090205460ff1681565b6008545b60405190815260200161022a565b6102866102de3660046123eb565b61060a565b6102c26102f1366004612371565b60106020526000908152604090205481565b610286610311366004612371565b61069a565b6102c26103243660046123a6565b6107fb565b6102c2610337366004612371565b600d6020526000908152604090205481565b6102866103573660046123eb565b610860565b6102c261036a366004612371565b610880565b61028661037d366004612435565b6108d9565b6102c2610390366004612371565b600f6020526000908152604090205481565b61025b6103b0366004612371565b61090c565b6102c26103c33660046123d0565b610917565b61028661095f565b6102866103de36600461246c565b610973565b600b546001600160a01b031661025b565b61023b610bff565b61028661040a36600461253a565b610c0e565b61028661041d366004612435565b610dff565b6102c261043036600461246c565b610e0a565b6104676104433660046125a7565b600c6020908152600092835260408084209091529082529020805460019091015482565b6040805192835260208301919091520161022a565b61028661048a3660046125d3565b610e3b565b61023b61049d366004612371565b610e52565b6102866104b036600461264f565b610e5d565b6102866104c336600461246c565b610ef7565b61021e6104d636600461264f565b805160208183018101805160118252928201919093012091525460ff1681565b61021e610504366004612684565b61133e565b6102866105173660046123d0565b61136c565b61028661052a3660046126ae565b6113aa565b600061053a82611606565b92915050565b60606000805461054f906126f4565b80601f016020809104026020016040519081016040528092919081815260200182805461057b906126f4565b80156105c85780601f1061059d576101008083540402835291602001916105c8565b820191906000526020600020905b8154815290600101906020018083116105ab57829003601f168201915b5050505050905090565b60006105dd8261162b565b506000828152600460205260409020546001600160a01b031661053a565b610606828233611664565b5050565b6001600160a01b03821661063957604051633250574960e11b8152600060048201526024015b60405180910390fd5b6000610646838333611671565b9050836001600160a01b0316816001600160a01b031614610694576040516364283d7b60e01b81526001600160a01b0380861660048301526024820184905282166044820152606401610630565b50505050565b6000818152600c602090815260408083203384529091529020546107005760405162461bcd60e51b815260206004820152601b60248201527f4e6f207374616b6520666f756e6420666f722074686973204e465400000000006044820152606401610630565b6000818152600c60209081526040808320338452825280832080548482556001909101849055848452600d9092528220805491928392610741908490612744565b9091555050600e5460405163a9059cbb60e01b8152336004820152602481018390526001600160a01b0390911690819063a9059cbb906044016020604051808303816000875af1158015610799573d6000803e3d6000fd5b505050506040513d601f19601f820116820180604052508101906107bd9190612757565b50604051828152839033907f7fc4727e062e336010f2c282598ef5f14facb3de68cf8195c2f23e1454b2b74e906020015b60405180910390a3505050565b600061080683610917565b82106108375760405163295f44f760e21b81526001600160a01b038416600482015260248101839052604401610630565b506001600160a01b03919091166000908152600660209081526040808320938352929052205490565b61087b83838360405180602001604052806000815250610e3b565b505050565b600061088b60085490565b82106108b45760405163295f44f760e21b81526000600482015260248101839052604401610630565b600882815481106108c7576108c7612774565b90600052602060002001549050919050565b6108e1611686565b6001600160a01b03919091166000908152601260205260409020805460ff1916911515919091179055565b600061053a8261162b565b60006001600160a01b038216610943576040516322718ad960e21b815260006004820152602401610630565b506001600160a01b031660009081526003602052604090205490565b610967611686565b61097160006116b3565b565b80670de0b6b3a7640000146109ca5760405162461bcd60e51b815260206004820152601d60248201527f4d757374207374616b652065786163746c7920312042656174436f696e0000006044820152606401610630565b6000828152600c6020908152604080832033845290915290205415610a225760405162461bcd60e51b815260206004820152600e60248201526d105b1c9958591e481cdd185ad95960921b6044820152606401610630565b600e546040516370a0823160e01b81523360048201526001600160a01b0390911690829082906370a0823190602401602060405180830381865afa158015610a6e573d6000803e3d6000fd5b505050506040513d601f19601f82011682018060405250810190610a92919061278a565b1015610ad75760405162461bcd60e51b8152602060048201526014602482015273496e73756666696369656e742062616c616e636560601b6044820152606401610630565b6040516323b872dd60e01b8152336004820152306024820152604481018390526001600160a01b038216906323b872dd906064016020604051808303816000875af1158015610b2a573d6000803e3d6000fd5b505050506040513d601f19601f82011682018060405250810190610b4e9190612757565b506040805180820182528381524260208083019182526000878152600c82528481203382528252848120935184559151600190930192909255858152600d9091529081208054849290610ba29084906127a3565b90915550506000838152600f60205260408120805460019290610bc69084906127a3565b9091555050604051828152839033907f1449c6dd7851abc30abf37f57715f492010519147cc2652fbc38202c18a6ee90906020016107ee565b60606001805461054f906126f4565b600e546040516001600160a01b0390911690670de0b6b3a764000090601190610c389085906127b6565b9081526040519081900360200190205460ff16610d84576040516370a0823160e01b815233600482015281906001600160a01b038416906370a0823190602401602060405180830381865afa158015610c95573d6000803e3d6000fd5b505050506040513d601f19601f82011682018060405250810190610cb9919061278a565b1015610d075760405162461bcd60e51b815260206004820152601d60248201527f496e73756666696369656e742042656174436f696e2062616c616e63650000006044820152606401610630565b6040516323b872dd60e01b8152336004820152306024820152604481018290526001600160a01b038316906323b872dd906064016020604051808303816000875af1158015610d5a573d6000803e3d6000fd5b505050506040513d601f19601f82011682018060405250810190610d7e9190612757565b50610db7565b6000601184604051610d9691906127b6565b908152604051908190036020019020805491151560ff199092169190911790555b610dc13386611705565b610dcb858561171f565b604051859033907f5a4ccfc63fecf7ae303c273b5c20b30ec2a80b18f42d5434ed9c74ff40ddbfc490600090a35050505050565b61060633838361176f565b60136020528160005260406000208181548110610e2657600080fd5b90600052602060002001600091509150505481565b610e4684848461060a565b61069484848484611806565b606061053a8261192f565b3360009081526012602052604090205460ff1680610e855750600b546001600160a01b031633145b610ec25760405162461bcd60e51b815260206004820152600e60248201526d139bdd08185d5d1a1bdc9a5e995960921b6044820152606401610630565b6001601182604051610ed491906127b6565b908152604051908190036020019020805491151560ff1990921691909117905550565b3360009081526012602052604090205460ff1680610f1f5750600b546001600160a01b031633145b610f5c5760405162461bcd60e51b815260206004820152600e60248201526d139bdd08185d5d1a1bdc9a5e995960921b6044820152606401610630565b6000828152600d6020526040902054610fb05760405162461bcd60e51b8152602060048201526016602482015275139bc81cdd185ad95cc8199bdc881d1a1a5cc813919560521b6044820152606401610630565b600e546001600160a01b03166000610fc9600a846127d2565b90506000610fd8600a856127d2565b90506000610fe682846127a3565b610ff09086612744565b60405163a9059cbb60e01b815260006004820152602481018590529091506001600160a01b0385169063a9059cbb906044016020604051808303816000875af1158015611041573d6000803e3d6000fd5b505050506040513d601f19601f820116820180604052508101906110659190612757565b5060008681526013602052604081205490819003611081575060015b600061108d82846127d2565b905060005b60008981526013602052604090205481101561116957600089815260136020526040812080546110dd9190849081106110cd576110cd612774565b906000526020600020015461090c565b60405163a9059cbb60e01b81526001600160a01b038083166004830152602482018690529192509089169063a9059cbb906044016020604051808303816000875af1158015611130573d6000803e3d6000fd5b505050506040513d601f19601f820116820180604052508101906111549190612757565b50508080611161906127f4565b915050611092565b50600088815260136020526040812054900361120457600061118a8961090c565b60405163a9059cbb60e01b81526001600160a01b038083166004830152602482018790529192509088169063a9059cbb906044016020604051808303816000875af11580156111dd573d6000803e3d6000fd5b505050506040513d601f19601f820116820180604052508101906112019190612757565b50505b6000888152600d602052604081205461121d90866127d2565b905060005b60008a8152600d60205260409020548110156112f85760008a8152600c6020908152604080832033845290915281205461125d57600061125f565b335b90506001600160a01b038116156112e55760405163a9059cbb60e01b81526001600160a01b038281166004830152602482018590528a169063a9059cbb906044016020604051808303816000875af11580156112bf573d6000803e3d6000fd5b505050506040513d601f19601f820116820180604052508101906112e39190612757565b505b50806112f0816127f4565b915050611222565b50887feaf3d57629d9b1ce95715ccd98d6f5bf48023be1d5a06e09f64ab7f6d8be01d58660405161132b91815260200190565b60405180910390a2505050505050505050565b6001600160a01b03918216600090815260056020908152604080832093909416825291909152205460ff1690565b611374611686565b6001600160a01b03811661139e57604051631e4fbdf760e01b815260006004820152602401610630565b6113a7816116b3565b50565b6000838152600260205260409020546001600160a01b031661140e5760405162461bcd60e51b815260206004820152601b60248201527f4f726967696e616c204e465420646f6573206e6f7420657869737400000000006044820152606401610630565b600e546040516370a0823160e01b81523360048201526001600160a01b0390911690670de0b6b3a764000090819083906370a0823190602401602060405180830381865afa158015611464573d6000803e3d6000fd5b505050506040513d601f19601f82011682018060405250810190611488919061278a565b10156114d65760405162461bcd60e51b815260206004820152601d60248201527f496e73756666696369656e742042656174436f696e2062616c616e63650000006044820152606401610630565b6040516323b872dd60e01b8152336004820152306024820152604481018290526001600160a01b038316906323b872dd906064016020604051808303816000875af1158015611529573d6000803e3d6000fd5b505050506040513d601f19601f8201168201806040525081019061154d9190612757565b506115583385611705565b611562848461171f565b600085815260136020526040808220868352912081546115829290612276565b5060008481526013602090815260408083208054600181018255908452918320909101879055518691869133917f780d3899db604f4378635f6f551297c833e4f97a3506f3612236271128f165b291a4604051849033907f5a4ccfc63fecf7ae303c273b5c20b30ec2a80b18f42d5434ed9c74ff40ddbfc490600090a35050505050565b60006001600160e01b03198216632483248360e11b148061053a575061053a82611a5d565b6000818152600260205260408120546001600160a01b03168061053a57604051637e27328960e01b815260048101849052602401610630565b61087b8383836001611a82565b600061167e848484611b88565b949350505050565b600b546001600160a01b031633146109715760405163118cdaa760e01b8152336004820152602401610630565b600b80546001600160a01b038381166001600160a01b0319831681179093556040519116919082907f8be0079c531659141344cd1fd0a4f28419497f9722a3daafe3b4186f6b6457e090600090a35050565b610606828260405180602001604052806000815250611c55565b6000828152600a60205260409020611737828261285b565b506040518281527ff8e1a15aba9398e019f0b49df1a4fde98ee17ae345cb5f6b5e2c27f5033e8ce79060200160405180910390a15050565b6001600160a01b0382166117a157604051630b61174360e31b81526001600160a01b0383166004820152602401610630565b6001600160a01b03838116600081815260056020908152604080832094871680845294825291829020805460ff191686151590811790915591519182527f17307eab39ab6107e8899845ad3d59bd9653f200f220920489ca2b5937696c3191016107ee565b6001600160a01b0383163b1561069457604051630a85bd0160e11b81526001600160a01b0384169063150b7a029061184890339088908790879060040161291b565b6020604051808303816000875af1925050508015611883575060408051601f3d908101601f1916820190925261188091810190612958565b60015b6118ec573d8080156118b1576040519150601f19603f3d011682016040523d82523d6000602084013e6118b6565b606091505b5080516000036118e457604051633250574960e11b81526001600160a01b0385166004820152602401610630565b805181602001fd5b6001600160e01b03198116630a85bd0160e11b1461192857604051633250574960e11b81526001600160a01b0385166004820152602401610630565b5050505050565b606061193a8261162b565b506000828152600a602052604081208054611954906126f4565b80601f0160208091040260200160405190810160405280929190818152602001828054611980906126f4565b80156119cd5780601f106119a2576101008083540402835291602001916119cd565b820191906000526020600020905b8154815290600101906020018083116119b057829003601f168201915b505050505090506000611a1060408051808201909152601c81527f68747470733a2f2f6d6574612e63727970746f6a616d2e636c75622f00000000602082015290565b90508051600003611a22575092915050565b815115611a54578082604051602001611a3c929190612975565b60405160208183030381529060405292505050919050565b61167e84611c6c565b60006001600160e01b0319821663780e9d6360e01b148061053a575061053a82611d06565b8080611a9657506001600160a01b03821615155b15611b58576000611aa68461162b565b90506001600160a01b03831615801590611ad25750826001600160a01b0316816001600160a01b031614155b8015611ae55750611ae3818461133e565b155b15611b0e5760405163a9fbf51f60e01b81526001600160a01b0384166004820152602401610630565b8115611b565783856001600160a01b0316826001600160a01b03167f8c5be1e5ebec7d5bd14f71427d1e84f3dd0314c0f7b2291e5b200ac8c7c3b92560405160405180910390a45b505b5050600090815260046020526040902080546001600160a01b0319166001600160a01b0392909216919091179055565b600080611b96858585611d56565b90506001600160a01b038116611bf357611bee84600880546000838152600960205260408120829055600182018355919091527ff3f7a9fe364faab93b216da50a3214154f22a0a2b415b23a84c8169e8b636ee30155565b611c16565b846001600160a01b0316816001600160a01b031614611c1657611c168185611e4f565b6001600160a01b038516611c3257611c2d84611ee0565b61167e565b846001600160a01b0316816001600160a01b03161461167e5761167e8585611f8f565b611c5f8383611fdf565b61087b6000848484611806565b6060611c778261162b565b506000611cb460408051808201909152601c81527f68747470733a2f2f6d6574612e63727970746f6a616d2e636c75622f00000000602082015290565b90506000815111611cd45760405180602001604052806000815250611cff565b80611cde84612044565b604051602001611cef929190612975565b6040516020818303038152906040525b9392505050565b60006001600160e01b031982166380ac58cd60e01b1480611d3757506001600160e01b03198216635b5e139f60e01b145b8061053a57506301ffc9a760e01b6001600160e01b031983161461053a565b6000828152600260205260408120546001600160a01b0390811690831615611d8357611d838184866120d7565b6001600160a01b03811615611dc157611da0600085600080611a82565b6001600160a01b038116600090815260036020526040902080546000190190555b6001600160a01b03851615611df0576001600160a01b0385166000908152600360205260409020805460010190555b60008481526002602052604080822080546001600160a01b0319166001600160a01b0389811691821790925591518793918516917fddf252ad1be2c89b69c2b068fc378daa952ba7f163c4a11628f55a4df523b3ef91a4949350505050565b6000611e5a83610917565b600083815260076020526040902054909150808214611ead576001600160a01b03841660009081526006602090815260408083208584528252808320548484528184208190558352600790915290208190555b5060009182526007602090815260408084208490556001600160a01b039094168352600681528383209183525290812055565b600854600090611ef290600190612744565b60008381526009602052604081205460088054939450909284908110611f1a57611f1a612774565b906000526020600020015490508060088381548110611f3b57611f3b612774565b6000918252602080832090910192909255828152600990915260408082208490558582528120556008805480611f7357611f736129a4565b6001900381819060005260206000200160009055905550505050565b60006001611f9c84610917565b611fa69190612744565b6001600160a01b039093166000908152600660209081526040808320868452825280832085905593825260079052919091209190915550565b6001600160a01b03821661200957604051633250574960e11b815260006004820152602401610630565b600061201783836000611671565b90506001600160a01b0381161561087b576040516339e3563760e11b815260006004820152602401610630565b606060006120518361213b565b600101905060008167ffffffffffffffff8111156120715761207161248e565b6040519080825280601f01601f19166020018201604052801561209b576020820181803683370190505b5090508181016020015b600019016f181899199a1a9b1b9c1cb0b131b232b360811b600a86061a8153600a85049450846120a557509392505050565b6120e2838383612213565b61087b576001600160a01b03831661211057604051637e27328960e01b815260048101829052602401610630565b60405163177e802f60e01b81526001600160a01b038316600482015260248101829052604401610630565b60008072184f03e93ff9f4daa797ed6e38ed64bf6a1f0160401b831061217a5772184f03e93ff9f4daa797ed6e38ed64bf6a1f0160401b830492506040015b6d04ee2d6d415b85acef810000000083106121a6576d04ee2d6d415b85acef8100000000830492506020015b662386f26fc1000083106121c457662386f26fc10000830492506010015b6305f5e10083106121dc576305f5e100830492506008015b61271083106121f057612710830492506004015b60648310612202576064830492506002015b600a831061053a5760010192915050565b60006001600160a01b0383161580159061167e5750826001600160a01b0316846001600160a01b0316148061224d575061224d848461133e565b8061167e5750506000908152600460205260409020546001600160a01b03908116911614919050565b8280548282559060005260206000209081019282156122b65760005260206000209182015b828111156122b657825482559160010191906001019061229b565b506122c29291506122c6565b5090565b5b808211156122c257600081556001016122c7565b6001600160e01b0319811681146113a757600080fd5b60006020828403121561230357600080fd5b8135611cff816122db565b60005b83811015612329578181015183820152602001612311565b50506000910152565b6000815180845261234a81602086016020860161230e565b601f01601f19169290920160200192915050565b602081526000611cff6020830184612332565b60006020828403121561238357600080fd5b5035919050565b80356001600160a01b03811681146123a157600080fd5b919050565b600080604083850312156123b957600080fd5b6123c28361238a565b946020939093013593505050565b6000602082840312156123e257600080fd5b611cff8261238a565b60008060006060848603121561240057600080fd5b6124098461238a565b92506124176020850161238a565b9150604084013590509250925092565b80151581146113a757600080fd5b6000806040838503121561244857600080fd5b6124518361238a565b9150602083013561246181612427565b809150509250929050565b6000806040838503121561247f57600080fd5b50508035926020909101359150565b634e487b7160e01b600052604160045260246000fd5b600067ffffffffffffffff808411156124bf576124bf61248e565b604051601f8501601f19908116603f011681019082821181831017156124e7576124e761248e565b8160405280935085815286868601111561250057600080fd5b858560208301376000602087830101525050509392505050565b600082601f83011261252b57600080fd5b611cff838335602085016124a4565b60008060006060848603121561254f57600080fd5b83359250602084013567ffffffffffffffff8082111561256e57600080fd5b61257a8783880161251a565b9350604086013591508082111561259057600080fd5b5061259d8682870161251a565b9150509250925092565b600080604083850312156125ba57600080fd5b823591506125ca6020840161238a565b90509250929050565b600080600080608085870312156125e957600080fd5b6125f28561238a565b93506126006020860161238a565b925060408501359150606085013567ffffffffffffffff81111561262357600080fd5b8501601f8101871361263457600080fd5b612643878235602084016124a4565b91505092959194509250565b60006020828403121561266157600080fd5b813567ffffffffffffffff81111561267857600080fd5b61167e8482850161251a565b6000806040838503121561269757600080fd5b6126a08361238a565b91506125ca6020840161238a565b6000806000606084860312156126c357600080fd5b8335925060208401359150604084013567ffffffffffffffff8111156126e857600080fd5b61259d8682870161251a565b600181811c9082168061270857607f821691505b60208210810361272857634e487b7160e01b600052602260045260246000fd5b50919050565b634e487b7160e01b600052601160045260246000fd5b8181038181111561053a5761053a61272e565b60006020828403121561276957600080fd5b8151611cff81612427565b634e487b7160e01b600052603260045260246000fd5b60006020828403121561279c57600080fd5b5051919050565b8082018082111561053a5761053a61272e565b600082516127c881846020870161230e565b9190910192915050565b6000826127ef57634e487b7160e01b600052601260045260246000fd5b500490565b6000600182016128065761280661272e565b5060010190565b601f82111561087b57600081815260208120601f850160051c810160208610156128345750805b601f850160051c820191505b8181101561285357828155600101612840565b505050505050565b815167ffffffffffffffff8111156128755761287561248e565b6128898161288384546126f4565b8461280d565b602080601f8311600181146128be57600084156128a65750858301515b600019600386901b1c1916600185901b178555612853565b600085815260208120601f198616915b828110156128ed578886015182559484019460019091019084016128ce565b508582101561290b5787850151600019600388901b60f8161c191681555b5050505050600190811b01905550565b6001600160a01b038581168252841660208201526040810183905260806060820181905260009061294e90830184612332565b9695505050505050565b60006020828403121561296a57600080fd5b8151611cff816122db565b6000835161298781846020880161230e565b83519083019061299b81836020880161230e565b01949350505050565b634e487b7160e01b600052603160045260246000fdfea2646970667358221220c5889a46183535d46a322c7cbc37d5d42780c97e5149e0700717108d28b8cade64736f6c63430008140033",
  "devdoc": {
    "errors": {
      "ERC721EnumerableForbiddenBatchMint()": [
        {
          "details": "Batch mint is not allowed."
        }
      ],
      "ERC721IncorrectOwner(address,uint256,address)": [
        {
          "details": "Indicates an error related to the ownership over a particular token. Used in transfers.",
          "params": {
            "owner": "Address of the current owner of a token.",
            "sender": "Address whose tokens are being transferred.",
            "tokenId": "Identifier number of a token."
          }
        }
      ],
      "ERC721InsufficientApproval(address,uint256)": [
        {
          "details": "Indicates a failure with the `operator`s approval. Used in transfers.",
          "params": {
            "operator": "Address that may be allowed to operate on tokens without being their owner.",
            "tokenId": "Identifier number of a token."
          }
        }
      ],
      "ERC721InvalidApprover(address)": [
        {
          "details": "Indicates a failure with the `approver` of a token to be approved. Used in approvals.",
          "params": {
            "approver": "Address initiating an approval operation."
          }
        }
      ],
      "ERC721InvalidOperator(address)": [
        {
          "details": "Indicates a failure with the `operator` to be approved. Used in approvals.",
          "params": {
            "operator": "Address that may be allowed to operate on tokens without being their owner."
          }
        }
      ],
      "ERC721InvalidOwner(address)": [
        {
          "details": "Indicates that an address can't be an owner. For example, `address(0)` is a forbidden owner in EIP-20. Used in balance queries.",
          "params": {
            "owner": "Address of the current owner of a token."
          }
        }
      ],
      "ERC721InvalidReceiver(address)": [
        {
          "details": "Indicates a failure with the token `receiver`. Used in transfers.",
          "params": {
            "receiver": "Address to which tokens are being transferred."
          }
        }
      ],
      "ERC721InvalidSender(address)": [
        {
          "details": "Indicates a failure with the token `sender`. Used in transfers.",
          "params": {
            "sender": "Address whose tokens are being transferred."
          }
        }
      ],
      "ERC721NonexistentToken(uint256)": [
        {
          "details": "Indicates a `tokenId` whose `owner` is the zero address.",
          "params": {
            "tokenId": "Identifier number of a token."
          }
        }
      ],
      "ERC721OutOfBoundsIndex(address,uint256)": [
        {
          "details": "An `owner`'s token query was out of bounds for `index`. NOTE: The owner being `address(0)` indicates a global out of bounds index."
        }
      ],
      "OwnableInvalidOwner(address)": [
        {
          "details": "The owner is not a valid owner account. (eg. `address(0)`)"
        }
      ],
      "OwnableUnauthorizedAccount(address)": [
        {
          "details": "The caller account is not authorized to perform an operation."
        }
      ]
    },
    "events": {
      "Approval(address,address,uint256)": {
        "details": "Emitted when `owner` enables `approved` to manage the `tokenId` token."
      },
      "ApprovalForAll(address,address,bool)": {
        "details": "Emitted when `owner` enables or disables (`approved`) `operator` to manage all of its assets."
      },
      "BatchMetadataUpdate(uint256,uint256)": {
        "details": "This event emits when the metadata of a range of tokens is changed. So that the third-party platforms such as NFT market could timely update the images and related attributes of the NFTs."
      },
      "MetadataUpdate(uint256)": {
        "details": "This event emits when the metadata of a token is changed. So that the third-party platforms such as NFT market could timely update the images and related attributes of the NFT."
      },
      "Transfer(address,address,uint256)": {
        "details": "Emitted when `tokenId` token is transferred from `from` to `to`."
      }
    },
    "kind": "dev",
    "methods": {
      "approve(address,uint256)": {
        "details": "See {IERC721-approve}."
      },
      "balanceOf(address)": {
        "details": "See {IERC721-balanceOf}."
      },
      "getApproved(uint256)": {
        "details": "See {IERC721-getApproved}."
      },
      "isApprovedForAll(address,address)": {
        "details": "See {IERC721-isApprovedForAll}."
      },
      "name()": {
        "details": "See {IERC721Metadata-name}."
      },
      "owner()": {
        "details": "Returns the address of the current owner."
      },
      "ownerOf(uint256)": {
        "details": "See {IERC721-ownerOf}."
      },
      "renounceOwnership()": {
        "details": "Leaves the contract without owner. It will not be possible to call `onlyOwner` functions. Can only be called by the current owner. NOTE: Renouncing ownership will leave the contract without an owner, thereby disabling any functionality that is only available to the owner."
      },
      "safeTransferFrom(address,address,uint256)": {
        "details": "See {IERC721-safeTransferFrom}."
      },
      "safeTransferFrom(address,address,uint256,bytes)": {
        "details": "See {IERC721-safeTransferFrom}."
      },
      "setApprovalForAll(address,bool)": {
        "details": "See {IERC721-setApprovalForAll}."
      },
      "symbol()": {
        "details": "See {IERC721Metadata-symbol}."
      },
      "tokenByIndex(uint256)": {
        "details": "See {IERC721Enumerable-tokenByIndex}."
      },
      "tokenOfOwnerByIndex(address,uint256)": {
        "details": "See {IERC721Enumerable-tokenOfOwnerByIndex}."
      },
      "totalSupply()": {
        "details": "See {IERC721Enumerable-totalSupply}."
      },
      "transferFrom(address,address,uint256)": {
        "details": "See {IERC721-transferFrom}."
      },
      "transferOwnership(address)": {
        "details": "Transfers ownership of the contract to a new account (`newOwner`). Can only be called by the current owner."
      }
    },
    "version": 1
  },
  "userdoc": {
    "kind": "user",
    "methods": {},
    "version": 1
  },
  "storageLayout": {
    "storage": [
      {
        "astId": 968,
        "contract": "contracts/NFTunes.sol:NFTunes",
        "label": "_name",
        "offset": 0,
        "slot": "0",
        "type": "t_string_storage"
      },
      {
        "astId": 970,
        "contract": "contracts/NFTunes.sol:NFTunes",
        "label": "_symbol",
        "offset": 0,
        "slot": "1",
        "type": "t_string_storage"
      },
      {
        "astId": 974,
        "contract": "contracts/NFTunes.sol:NFTunes",
        "label": "_owners",
        "offset": 0,
        "slot": "2",
        "type": "t_mapping(t_uint256,t_address)"
      },
      {
        "astId": 978,
        "contract": "contracts/NFTunes.sol:NFTunes",
        "label": "_balances",
        "offset": 0,
        "slot": "3",
        "type": "t_mapping(t_address,t_uint256)"
      },
      {
        "astId": 982,
        "contract": "contracts/NFTunes.sol:NFTunes",
        "label": "_tokenApprovals",
        "offset": 0,
        "slot": "4",
        "type": "t_mapping(t_uint256,t_address)"
      },
      {
        "astId": 988,
        "contract": "contracts/NFTunes.sol:NFTunes",
        "label": "_operatorApprovals",
        "offset": 0,
        "slot": "5",
        "type": "t_mapping(t_address,t_mapping(t_address,t_bool))"
      },
      {
        "astId": 2098,
        "contract": "contracts/NFTunes.sol:NFTunes",
        "label": "_ownedTokens",
        "offset": 0,
        "slot": "6",
        "type": "t_mapping(t_address,t_mapping(t_uint256,t_uint256))"
      },
      {
        "astId": 2102,
        "contract": "contracts/NFTunes.sol:NFTunes",
        "label": "_ownedTokensIndex",
        "offset": 0,
        "slot": "7",
        "type": "t_mapping(t_uint256,t_uint256)"
      },
      {
        "astId": 2105,
        "contract": "contracts/NFTunes.sol:NFTunes",
        "label": "_allTokens",
        "offset": 0,
        "slot": "8",
        "type": "t_array(t_uint256)dyn_storage"
      },
      {
        "astId": 2109,
        "contract": "contracts/NFTunes.sol:NFTunes",
        "label": "_allTokensIndex",
        "offset": 0,
        "slot": "9",
        "type": "t_mapping(t_uint256,t_uint256)"
      },
      {
        "astId": 2491,
        "contract": "contracts/NFTunes.sol:NFTunes",
        "label": "_tokenURIs",
        "offset": 0,
        "slot": "10",
        "type": "t_mapping(t_uint256,t_string_storage)"
      },
      {
        "astId": 8,
        "contract": "contracts/NFTunes.sol:NFTunes",
        "label": "_owner",
        "offset": 0,
        "slot": "11",
        "type": "t_address"
      },
      {
        "astId": 4203,
        "contract": "contracts/NFTunes.sol:NFTunes",
        "label": "stakes",
        "offset": 0,
        "slot": "12",
        "type": "t_mapping(t_uint256,t_mapping(t_address,t_struct(Stake)4196_storage))"
      },
      {
        "astId": 4207,
        "contract": "contracts/NFTunes.sol:NFTunes",
        "label": "totalStaked",
        "offset": 0,
        "slot": "13",
        "type": "t_mapping(t_uint256,t_uint256)"
      },
      {
        "astId": 4209,
        "contract": "contracts/NFTunes.sol:NFTunes",
        "label": "beatCoinContract",
        "offset": 0,
        "slot": "14",
        "type": "t_address"
      },
      {
        "astId": 4213,
        "contract": "contracts/NFTunes.sol:NFTunes",
        "label": "nftRanking",
        "offset": 0,
        "slot": "15",
        "type": "t_mapping(t_uint256,t_uint256)"
      },
      {
        "astId": 4217,
        "contract": "contracts/NFTunes.sol:NFTunes",
        "label": "remixOf",
        "offset": 0,
        "slot": "16",
        "type": "t_mapping(t_uint256,t_uint256)"
      },
      {
        "astId": 4221,
        "contract": "contracts/NFTunes.sol:NFTunes",
        "label": "inviteCodes",
        "offset": 0,
        "slot": "17",
        "type": "t_mapping(t_string_memory_ptr,t_bool)"
      },
      {
        "astId": 4225,
        "contract": "contracts/NFTunes.sol:NFTunes",
        "label": "operators",
        "offset": 0,
        "slot": "18",
        "type": "t_mapping(t_address,t_bool)"
      },
      {
        "astId": 4230,
        "contract": "contracts/NFTunes.sol:NFTunes",
        "label": "ancestors",
        "offset": 0,
        "slot": "19",
        "type": "t_mapping(t_uint256,t_array(t_uint256)dyn_storage)"
      }
    ],
    "types": {
      "t_address": {
        "encoding": "inplace",
        "label": "address",
        "numberOfBytes": "20"
      },
      "t_array(t_uint256)dyn_storage": {
        "base": "t_uint256",
        "encoding": "dynamic_array",
        "label": "uint256[]",
        "numberOfBytes": "32"
      },
      "t_bool": {
        "encoding": "inplace",
        "label": "bool",
        "numberOfBytes": "1"
      },
      "t_mapping(t_address,t_bool)": {
        "encoding": "mapping",
        "key": "t_address",
        "label": "mapping(address => bool)",
        "numberOfBytes": "32",
        "value": "t_bool"
      },
      "t_mapping(t_address,t_mapping(t_address,t_bool))": {
        "encoding": "mapping",
        "key": "t_address",
        "label": "mapping(address => mapping(address => bool))",
        "numberOfBytes": "32",
        "value": "t_mapping(t_address,t_bool)"
      },
      "t_mapping(t_address,t_mapping(t_uint256,t_uint256))": {
        "encoding": "mapping",
        "key": "t_address",
        "label": "mapping(address => mapping(uint256 => uint256))",
        "numberOfBytes": "32",
        "value": "t_mapping(t_uint256,t_uint256)"
      },
      "t_mapping(t_address,t_struct(Stake)4196_storage)": {
        "encoding": "mapping",
        "key": "t_address",
        "label": "mapping(address => struct NFTunes.Stake)",
        "numberOfBytes": "32",
        "value": "t_struct(Stake)4196_storage"
      },
      "t_mapping(t_address,t_uint256)": {
        "encoding": "mapping",
        "key": "t_address",
        "label": "mapping(address => uint256)",
        "numberOfBytes": "32",
        "value": "t_uint256"
      },
      "t_mapping(t_string_memory_ptr,t_bool)": {
        "encoding": "mapping",
        "key": "t_string_memory_ptr",
        "label": "mapping(string => bool)",
        "numberOfBytes": "32",
        "value": "t_bool"
      },
      "t_mapping(t_uint256,t_address)": {
        "encoding": "mapping",
        "key": "t_uint256",
        "label": "mapping(uint256 => address)",
        "numberOfBytes": "32",
        "value": "t_address"
      },
      "t_mapping(t_uint256,t_array(t_uint256)dyn_storage)": {
        "encoding": "mapping",
        "key": "t_uint256",
        "label": "mapping(uint256 => uint256[])",
        "numberOfBytes": "32",
        "value": "t_array(t_uint256)dyn_storage"
      },
      "t_mapping(t_uint256,t_mapping(t_address,t_struct(Stake)4196_storage))": {
        "encoding": "mapping",
        "key": "t_uint256",
        "label": "mapping(uint256 => mapping(address => struct NFTunes.Stake))",
        "numberOfBytes": "32",
        "value": "t_mapping(t_address,t_struct(Stake)4196_storage)"
      },
      "t_mapping(t_uint256,t_string_storage)": {
        "encoding": "mapping",
        "key": "t_uint256",
        "label": "mapping(uint256 => string)",
        "numberOfBytes": "32",
        "value": "t_string_storage"
      },
      "t_mapping(t_uint256,t_uint256)": {
        "encoding": "mapping",
        "key": "t_uint256",
        "label": "mapping(uint256 => uint256)",
        "numberOfBytes": "32",
        "value": "t_uint256"
      },
      "t_string_memory_ptr": {
        "encoding": "bytes",
        "label": "string",
        "numberOfBytes": "32"
      },
      "t_string_storage": {
        "encoding": "bytes",
        "label": "string",
        "numberOfBytes": "32"
      },
      "t_struct(Stake)4196_storage": {
        "encoding": "inplace",
        "label": "struct NFTunes.Stake",
        "members": [
          {
            "astId": 4193,
            "contract": "contracts/NFTunes.sol:NFTunes",
            "label": "amount",
            "offset": 0,
            "slot": "0",
            "type": "t_uint256"
          },
          {
            "astId": 4195,
            "contract": "contracts/NFTunes.sol:NFTunes",
            "label": "timestamp",
            "offset": 0,
            "slot": "1",
            "type": "t_uint256"
          }
        ],
        "numberOfBytes": "64"
      },
      "t_uint256": {
        "encoding": "inplace",
        "label": "uint256",
        "numberOfBytes": "32"
      }
    }
  }
}